{"abi":[{"type":"constructor","inputs":[{"name":"_token","type":"address","internalType":"address"},{"name":"_platformSigner","type":"address","internalType":"address"}],"stateMutability":"nonpayable"},{"type":"function","name":"deposit","inputs":[{"name":"amount","type":"uint256","internalType":"uint256"}],"outputs":[],"stateMutability":"nonpayable"},{"type":"function","name":"emergencyWithdraw","inputs":[{"name":"_token","type":"address","internalType":"address"},{"name":"amount","type":"uint256","internalType":"uint256"}],"outputs":[],"stateMutability":"nonpayable"},{"type":"function","name":"getNonce","inputs":[{"name":"user","type":"address","internalType":"address"}],"outputs":[{"name":"","type":"uint256","internalType":"uint256"}],"stateMutability":"view"},{"type":"function","name":"nonces","inputs":[{"name":"","type":"address","internalType":"address"}],"outputs":[{"name":"","type":"uint256","internalType":"uint256"}],"stateMutability":"view"},{"type":"function","name":"owner","inputs":[],"outputs":[{"name":"","type":"address","internalType":"address"}],"stateMutability":"view"},{"type":"function","name":"platformSigner","inputs":[],"outputs":[{"name":"","type":"address","internalType":"address"}],"stateMutability":"view"},{"type":"function","name":"renounceOwnership","inputs":[],"outputs":[],"stateMutability":"nonpayable"},{"type":"function","name":"setPlatformSigner","inputs":[{"name":"newSigner","type":"address","internalType":"address"}],"outputs":[],"stateMutability":"nonpayable"},{"type":"function","name":"token","inputs":[],"outputs":[{"name":"","type":"address","internalType":"contract IERC20"}],"stateMutability":"view"},{"type":"function","name":"transferOwnership","inputs":[{"name":"newOwner","type":"address","internalType":"address"}],"outputs":[],"stateMutability":"nonpayable"},{"type":"function","name":"vaultBalance","inputs":[],"outputs":[{"name":"","type":"uint256","internalType":"uint256"}],"stateMutability":"view"},{"type":"function","name":"withdraw","inputs":[{"name":"amount","type":"uint256","internalType":"uint256"},{"name":"nonce","type":"uint256","internalType":"uint256"},{"name":"signature","type":"bytes","internalType":"bytes"}],"outputs":[],"stateMutability":"nonpayable"},{"type":"event","name":"Deposited","inputs":[{"name":"user","type":"address","indexed":true,"internalType":"address"},{"name":"amount","type":"uint256","indexed":false,"internalType":"uint256"},{"name":"timestamp","type":"uint256","indexed":false,"internalType":"uint256"}],"anonymous":false},{"type":"event","name":"EmergencyWithdraw","inputs":[{"name":"token","type":"address","indexed":true,"internalType":"address"},{"name":"amount","type":"uint256","indexed":false,"internalType":"uint256"}],"anonymous":false},{"type":"event","name":"OwnershipTransferred","inputs":[{"name":"previousOwner","type":"address","indexed":true,"internalType":"address"},{"name":"newOwner","type":"address","indexed":true,"internalType":"address"}],"anonymous":false},{"type":"event","name":"PlatformSignerUpdated","inputs":[{"name":"oldSigner","type":"address","indexed":true,"internalType":"address"},{"name":"newSigner","type":"address","indexed":true,"internalType":"address"}],"anonymous":false},{"type":"event","name":"Withdrawn","inputs":[{"name":"user","type":"address","indexed":true,"internalType":"address"},{"name":"amount","type":"uint256","indexed":false,"internalType":"uint256"},{"name":"nonce","type":"uint256","indexed":false,"internalType":"uint256"},{"name":"timestamp","type":"uint256","indexed":false,"internalType":"uint256"}],"anonymous":false},{"type":"error","name":"InsufficientVaultBalance","inputs":[]},{"type":"error","name":"InvalidNonce","inputs":[]},{"type":"error","name":"InvalidSignature","inputs":[]},{"type":"error","name":"OwnableInvalidOwner","inputs":[{"name":"owner","type":"address","internalType":"address"}]},{"type":"error","name":"OwnableUnauthorizedAccount","inputs":[{"name":"account","type":"address","internalType":"address"}]},{"type":"error","name":"ReentrancyGuardReentrantCall","inputs":[]},{"type":"error","name":"SafeERC20FailedOperation","inputs":[{"name":"token","type":"address","internalType":"address"}]},{"type":"error","name":"ZeroAmount","inputs":[]}],"bytecode":{"object":"0x60a060405234801561000f575f5ffd5b50604051611840380380611840833981810160405281019061003191906102a2565b335f73ffffffffffffffffffffffffffffffffffffffff168173ffffffffffffffffffffffffffffffffffffffff16036100a2575f6040517f1e4fbdf700000000000000000000000000000000000000000000000000000000815260040161009991906102ef565b60405180910390fd5b6100b18161015160201b60201c565b5060016100d06100c561021260201b60201c565b61023b60201b60201c565b5f01819055508173ffffffffffffffffffffffffffffffffffffffff1660808173ffffffffffffffffffffffffffffffffffffffff16815250508060015f6101000a81548173ffffffffffffffffffffffffffffffffffffffff021916908373ffffffffffffffffffffffffffffffffffffffff1602179055505050610308565b5f5f5f9054906101000a900473ffffffffffffffffffffffffffffffffffffffff169050815f5f6101000a81548173ffffffffffffffffffffffffffffffffffffffff021916908373ffffffffffffffffffffffffffffffffffffffff1602179055508173ffffffffffffffffffffffffffffffffffffffff168173ffffffffffffffffffffffffffffffffffffffff167f8be0079c531659141344cd1fd0a4f28419497f9722a3daafe3b4186f6b6457e060405160405180910390a35050565b5f7f9b779b17422d0df92223018b32b4d1fa46e071723d6817e2486d003becc55f005f1b905090565b5f819050919050565b5f5ffd5b5f73ffffffffffffffffffffffffffffffffffffffff82169050919050565b5f61027182610248565b9050919050565b61028181610267565b811461028b575f5ffd5b50565b5f8151905061029c81610278565b92915050565b5f5f604083850312156102b8576102b7610244565b5b5f6102c58582860161028e565b92505060206102d68582860161028e565b9150509250929050565b6102e981610267565b82525050565b5f6020820190506103025f8301846102e0565b92915050565b60805161150461033c5f395f81816102270152818161058c015281816106b70152818161087b01526109c601526115045ff3fe608060405234801561000f575f5ffd5b50600436106100b2575f3560e01c80638da5cb5b1161006f5780638da5cb5b1461017657806395ccea6714610194578063b6b55f25146101b0578063ba92ddbc146101cc578063f2fde38b146101ea578063fc0c546a14610206576100b2565b80630bf6cc08146100b65780632d0335ab146100d45780633b79c44f14610104578063715018a614610120578063744fb6ca1461012a5780637ecebe0014610146575b5f5ffd5b6100be610224565b6040516100cb9190610e67565b60405180910390f35b6100ee60048036038101906100e99190610ee2565b6102c2565b6040516100fb9190610e67565b60405180910390f35b61011e60048036038101906101199190610ee2565b610308565b005b6101286103d3565b005b610144600480360381019061013f9190610f98565b6103e6565b005b610160600480360381019061015b9190610ee2565b61076a565b60405161016d9190610e67565b60405180910390f35b61017e61077f565b60405161018b9190611018565b60405180910390f35b6101ae60048036038101906101a99190611031565b6107a6565b005b6101ca60048036038101906101c5919061106f565b610832565b005b6101d461091b565b6040516101e19190611018565b60405180910390f35b61020460048036038101906101ff9190610ee2565b610940565b005b61020e6109c4565b60405161021b91906110f5565b60405180910390f35b5f7f000000000000000000000000000000000000000000000000000000000000000073ffffffffffffffffffffffffffffffffffffffff166370a08231306040518263ffffffff1660e01b815260040161027e9190611018565b602060405180830381865afa158015610299573d5f5f3e3d5ffd5b505050506040513d601f19601f820116820180604052508101906102bd9190611122565b905090565b5f60025f8373ffffffffffffffffffffffffffffffffffffffff1673ffffffffffffffffffffffffffffffffffffffff1681526020019081526020015f20549050919050565b6103106109e8565b5f60015f9054906101000a900473ffffffffffffffffffffffffffffffffffffffff1690508160015f6101000a81548173ffffffffffffffffffffffffffffffffffffffff021916908373ffffffffffffffffffffffffffffffffffffffff1602179055508173ffffffffffffffffffffffffffffffffffffffff168173ffffffffffffffffffffffffffffffffffffffff167f1239e962feba92012c448b594b234c3363582eeda371b42a4d8670ee38eeceaa60405160405180910390a35050565b6103db6109e8565b6103e45f610a6f565b565b6103ee610b30565b5f8403610427576040517f1f2a200500000000000000000000000000000000000000000000000000000000815260040160405180910390fd5b60025f3373ffffffffffffffffffffffffffffffffffffffff1673ffffffffffffffffffffffffffffffffffffffff1681526020019081526020015f2054831461049d576040517f756688fe00000000000000000000000000000000000000000000000000000000815260040160405180910390fd5b5f33858546306040516020016104b79594939291906111b2565b604051602081830303815290604052805190602001206040516020016104dd919061128d565b6040516020818303038152906040528051906020012090505f610501828585610b52565b905060015f9054906101000a900473ffffffffffffffffffffffffffffffffffffffff1673ffffffffffffffffffffffffffffffffffffffff168173ffffffffffffffffffffffffffffffffffffffff1614610589576040517f8baa579f00000000000000000000000000000000000000000000000000000000815260040160405180910390fd5b5f7f000000000000000000000000000000000000000000000000000000000000000073ffffffffffffffffffffffffffffffffffffffff166370a08231306040518263ffffffff1660e01b81526004016105e39190611018565b602060405180830381865afa1580156105fe573d5f5f3e3d5ffd5b505050506040513d601f19601f820116820180604052508101906106229190611122565b90508681101561065e576040517f14ecd6c700000000000000000000000000000000000000000000000000000000815260040160405180910390fd5b60025f3373ffffffffffffffffffffffffffffffffffffffff1673ffffffffffffffffffffffffffffffffffffffff1681526020019081526020015f205f8154809291906106ab906112df565b91905055506106fb33887f000000000000000000000000000000000000000000000000000000000000000073ffffffffffffffffffffffffffffffffffffffff16610c249092919063ffffffff16565b3373ffffffffffffffffffffffffffffffffffffffff167f75e161b3e824b114fc1a33274bd7091918dd4e639cede50b78b15a4eea956a21886001896107419190611326565b4260405161075193929190611359565b60405180910390a2505050610764610c77565b50505050565b6002602052805f5260405f205f915090505481565b5f5f5f9054906101000a900473ffffffffffffffffffffffffffffffffffffffff16905090565b6107ae6109e8565b6107e06107b961077f565b828473ffffffffffffffffffffffffffffffffffffffff16610c249092919063ffffffff16565b8173ffffffffffffffffffffffffffffffffffffffff167f5fafa99d0643513820be26656b45130b01e1c03062e1266bf36f88cbd3bd9695826040516108269190610e67565b60405180910390a25050565b61083a610b30565b5f8103610873576040517f1f2a200500000000000000000000000000000000000000000000000000000000815260040160405180910390fd5b6108c03330837f000000000000000000000000000000000000000000000000000000000000000073ffffffffffffffffffffffffffffffffffffffff16610c91909392919063ffffffff16565b3373ffffffffffffffffffffffffffffffffffffffff167f73a19dd210f1a7f902193214c0ee91dd35ee5b4d920cba8d519eca65a7b488ca824260405161090892919061138e565b60405180910390a2610918610c77565b50565b60015f9054906101000a900473ffffffffffffffffffffffffffffffffffffffff1681565b6109486109e8565b5f73ffffffffffffffffffffffffffffffffffffffff168173ffffffffffffffffffffffffffffffffffffffff16036109b8575f6040517f1e4fbdf70000000000000000000000000000000000000000000000000000000081526004016109af9190611018565b60405180910390fd5b6109c181610a6f565b50565b7f000000000000000000000000000000000000000000000000000000000000000081565b6109f0610ce6565b73ffffffffffffffffffffffffffffffffffffffff16610a0e61077f565b73ffffffffffffffffffffffffffffffffffffffff1614610a6d57610a31610ce6565b6040517f118cdaa7000000000000000000000000000000000000000000000000000000008152600401610a649190611018565b60405180910390fd5b565b5f5f5f9054906101000a900473ffffffffffffffffffffffffffffffffffffffff169050815f5f6101000a81548173ffffffffffffffffffffffffffffffffffffffff021916908373ffffffffffffffffffffffffffffffffffffffff1602179055508173ffffffffffffffffffffffffffffffffffffffff168173ffffffffffffffffffffffffffffffffffffffff167f8be0079c531659141344cd1fd0a4f28419497f9722a3daafe3b4186f6b6457e060405160405180910390a35050565b610b38610ced565b6002610b4a610b45610d2e565b610d57565b5f0181905550565b5f60418383905014610b99576040517f08c379a0000000000000000000000000000000000000000000000000000000008152600401610b909061140f565b60405180910390fd5b5f5f5f853592506020860135915060408601355f1a9050601b8160ff161015610bcc57601b81610bc99190611439565b90505b6001878285856040515f8152602001604052604051610bee949392919061148b565b6020604051602081039080840390855afa158015610c0e573d5f5f3e3d5ffd5b5050506020604051035193505050509392505050565b610c318383836001610d60565b610c7257826040517f5274afe7000000000000000000000000000000000000000000000000000000008152600401610c699190611018565b60405180910390fd5b505050565b6001610c89610c84610d2e565b610d57565b5f0181905550565b610c9f848484846001610dc2565b610ce057836040517f5274afe7000000000000000000000000000000000000000000000000000000008152600401610cd79190611018565b60405180910390fd5b50505050565b5f33905090565b610cf5610e33565b15610d2c576040517f3ee5aeb500000000000000000000000000000000000000000000000000000000815260040160405180910390fd5b565b5f7f9b779b17422d0df92223018b32b4d1fa46e071723d6817e2486d003becc55f005f1b905090565b5f819050919050565b5f5f63a9059cbb60e01b9050604051815f525f1960601c86166004528460245260205f60445f5f8b5af1925060015f51148316610db4578383151615610da8573d5f823e3d81fd5b5f873b113d1516831692505b806040525050949350505050565b5f5f6323b872dd60e01b9050604051815f525f1960601c87166004525f1960601c86166024528460445260205f60645f5f8c5af1925060015f51148316610e20578383151615610e14573d5f823e3d81fd5b5f883b113d1516831692505b806040525f606052505095945050505050565b5f6002610e46610e41610d2e565b610d57565b5f015414905090565b5f819050919050565b610e6181610e4f565b82525050565b5f602082019050610e7a5f830184610e58565b92915050565b5f5ffd5b5f5ffd5b5f73ffffffffffffffffffffffffffffffffffffffff82169050919050565b5f610eb182610e88565b9050919050565b610ec181610ea7565b8114610ecb575f5ffd5b50565b5f81359050610edc81610eb8565b92915050565b5f60208284031215610ef757610ef6610e80565b5b5f610f0484828501610ece565b91505092915050565b610f1681610e4f565b8114610f20575f5ffd5b50565b5f81359050610f3181610f0d565b92915050565b5f5ffd5b5f5ffd5b5f5ffd5b5f5f83601f840112610f5857610f57610f37565b5b8235905067ffffffffffffffff811115610f7557610f74610f3b565b5b602083019150836001820283011115610f9157610f90610f3f565b5b9250929050565b5f5f5f5f60608587031215610fb057610faf610e80565b5b5f610fbd87828801610f23565b9450506020610fce87828801610f23565b935050604085013567ffffffffffffffff811115610fef57610fee610e84565b5b610ffb87828801610f43565b925092505092959194509250565b61101281610ea7565b82525050565b5f60208201905061102b5f830184611009565b92915050565b5f5f6040838503121561104757611046610e80565b5b5f61105485828601610ece565b925050602061106585828601610f23565b9150509250929050565b5f6020828403121561108457611083610e80565b5b5f61109184828501610f23565b91505092915050565b5f819050919050565b5f6110bd6110b86110b384610e88565b61109a565b610e88565b9050919050565b5f6110ce826110a3565b9050919050565b5f6110df826110c4565b9050919050565b6110ef816110d5565b82525050565b5f6020820190506111085f8301846110e6565b92915050565b5f8151905061111c81610f0d565b92915050565b5f6020828403121561113757611136610e80565b5b5f6111448482850161110e565b91505092915050565b5f8160601b9050919050565b5f6111638261114d565b9050919050565b5f61117482611159565b9050919050565b61118c61118782610ea7565b61116a565b82525050565b5f819050919050565b6111ac6111a782610e4f565b611192565b82525050565b5f6111bd828861117b565b6014820191506111cd828761119b565b6020820191506111dd828661119b565b6020820191506111ed828561119b565b6020820191506111fd828461117b565b6014820191508190509695505050505050565b5f81905092915050565b7f19457468657265756d205369676e6564204d6573736167653a0a3332000000005f82015250565b5f61124e601c83611210565b91506112598261121a565b601c82019050919050565b5f819050919050565b5f819050919050565b61128761128282611264565b61126d565b82525050565b5f61129782611242565b91506112a38284611276565b60208201915081905092915050565b7f4e487b71000000000000000000000000000000000000000000000000000000005f52601160045260245ffd5b5f6112e982610e4f565b91507fffffffffffffffffffffffffffffffffffffffffffffffffffffffffffffffff820361131b5761131a6112b2565b5b600182019050919050565b5f61133082610e4f565b915061133b83610e4f565b9250828203905081811115611353576113526112b2565b5b92915050565b5f60608201905061136c5f830186610e58565b6113796020830185610e58565b6113866040830184610e58565b949350505050565b5f6040820190506113a15f830185610e58565b6113ae6020830184610e58565b9392505050565b5f82825260208201905092915050565b7f496e76616c6964207369676e6174757265206c656e67746800000000000000005f82015250565b5f6113f96018836113b5565b9150611404826113c5565b602082019050919050565b5f6020820190508181035f830152611426816113ed565b9050919050565b5f60ff82169050919050565b5f6114438261142d565b915061144e8361142d565b9250828201905060ff811115611467576114666112b2565b5b92915050565b61147681611264565b82525050565b6114858161142d565b82525050565b5f60808201905061149e5f83018761146d565b6114ab602083018661147c565b6114b8604083018561146d565b6114c5606083018461146d565b9594505050505056fea2646970667358221220d52cfc8bafac32aa0d4b567f7d0d1438599c55bbfde32f0cf202499acd5df35b64736f6c63430008210033","linkReferences":{}},"methodIdentifiers":{"deposit(uint256)":"b6b55f25","emergencyWithdraw(address,uint256)":"95ccea67","getNonce(address)":"2d0335ab","nonces(address)":"7ecebe00","owner()":"8da5cb5b","platformSigner()":"ba92ddbc","renounceOwnership()":"715018a6","setPlatformSigner(address)":"3b79c44f","token()":"fc0c546a","transferOwnership(address)":"f2fde38b","vaultBalance()":"0bf6cc08","withdraw(uint256,uint256,bytes)":"744fb6ca"},"id":13}