{"abi":[{"type":"constructor","inputs":[],"stateMutability":"nonpayable"},{"type":"function","name":"allowance","inputs":[{"name":"owner","type":"address","internalType":"address"},{"name":"spender","type":"address","internalType":"address"}],"outputs":[{"name":"","type":"uint256","internalType":"uint256"}],"stateMutability":"view"},{"type":"function","name":"approve","inputs":[{"name":"spender","type":"address","internalType":"address"},{"name":"value","type":"uint256","internalType":"uint256"}],"outputs":[{"name":"","type":"bool","internalType":"bool"}],"stateMutability":"nonpayable"},{"type":"function","name":"balanceOf","inputs":[{"name":"account","type":"address","internalType":"address"}],"outputs":[{"name":"","type":"uint256","internalType":"uint256"}],"stateMutability":"view"},{"type":"function","name":"decimals","inputs":[],"outputs":[{"name":"","type":"uint8","internalType":"uint8"}],"stateMutability":"view"},{"type":"function","name":"faucet","inputs":[],"outputs":[],"stateMutability":"nonpayable"},{"type":"function","name":"name","inputs":[],"outputs":[{"name":"","type":"string","internalType":"string"}],"stateMutability":"view"},{"type":"function","name":"symbol","inputs":[],"outputs":[{"name":"","type":"string","internalType":"string"}],"stateMutability":"view"},{"type":"function","name":"totalSupply","inputs":[],"outputs":[{"name":"","type":"uint256","internalType":"uint256"}],"stateMutability":"view"},{"type":"function","name":"transfer","inputs":[{"name":"to","type":"address","internalType":"address"},{"name":"value","type":"uint256","internalType":"uint256"}],"outputs":[{"name":"","type":"bool","internalType":"bool"}],"stateMutability":"nonpayable"},{"type":"function","name":"transferFrom","inputs":[{"name":"from","type":"address","internalType":"address"},{"name":"to","type":"address","internalType":"address"},{"name":"value","type":"uint256","internalType":"uint256"}],"outputs":[{"name":"","type":"bool","internalType":"bool"}],"stateMutability":"nonpayable"},{"type":"event","name":"Approval","inputs":[{"name":"owner","type":"address","indexed":true,"internalType":"address"},{"name":"spender","type":"address","indexed":true,"internalType":"address"},{"name":"value","type":"uint256","indexed":false,"internalType":"uint256"}],"anonymous":false},{"type":"event","name":"Transfer","inputs":[{"name":"from","type":"address","indexed":true,"internalType":"address"},{"name":"to","type":"address","indexed":true,"internalType":"address"},{"name":"value","type":"uint256","indexed":false,"internalType":"uint256"}],"anonymous":false},{"type":"error","name":"ERC20InsufficientAllowance","inputs":[{"name":"spender","type":"address","internalType":"address"},{"name":"allowance","type":"uint256","internalType":"uint256"},{"name":"needed","type":"uint256","internalType":"uint256"}]},{"type":"error","name":"ERC20InsufficientBalance","inputs":[{"name":"sender","type":"address","internalType":"address"},{"name":"balance","type":"uint256","internalType":"uint256"},{"name":"needed","type":"uint256","internalType":"uint256"}]},{"type":"error","name":"ERC20InvalidApprover","inputs":[{"name":"approver","type":"address","internalType":"address"}]},{"type":"error","name":"ERC20InvalidReceiver","inputs":[{"name":"receiver","type":"address","internalType":"address"}]},{"type":"error","name":"ERC20InvalidSender","inputs":[{"name":"sender","type":"address","internalType":"address"}]},{"type":"error","name":"ERC20InvalidSpender","inputs":[{"name":"spender","type":"address","internalType":"address"}]}],"bytecode":{"object":"0x608060405234801561000f575f5ffd5b506040518060400160405280600581526020017f536f6e61720000000000000000000000000000000000000000000000000000008152506040518060400160405280600581526020017f534f4e4152000000000000000000000000000000000000000000000000000000815250816003908161008b91906105ac565b50806004908161009b91906105ac565b5050506100bb336c01431e0fae6d7217caa00000006100c060201b60201c565b610790565b5f73ffffffffffffffffffffffffffffffffffffffff168273ffffffffffffffffffffffffffffffffffffffff1603610130575f6040517fec442f0500000000000000000000000000000000000000000000000000000000815260040161012791906106ba565b60405180910390fd5b6101415f838361014560201b60201c565b5050565b5f73ffffffffffffffffffffffffffffffffffffffff168373ffffffffffffffffffffffffffffffffffffffff1603610195578060025f8282546101899190610700565b92505081905550610263565b5f5f5f8573ffffffffffffffffffffffffffffffffffffffff1673ffffffffffffffffffffffffffffffffffffffff1681526020019081526020015f205490508181101561021e578381836040517fe450d38c00000000000000000000000000000000000000000000000000000000815260040161021593929190610742565b60405180910390fd5b8181035f5f8673ffffffffffffffffffffffffffffffffffffffff1673ffffffffffffffffffffffffffffffffffffffff1681526020019081526020015f2081905550505b5f73ffffffffffffffffffffffffffffffffffffffff168273ffffffffffffffffffffffffffffffffffffffff16036102aa578060025f82825403925050819055506102f4565b805f5f8473ffffffffffffffffffffffffffffffffffffffff1673ffffffffffffffffffffffffffffffffffffffff1681526020019081526020015f205f82825401925050819055505b8173ffffffffffffffffffffffffffffffffffffffff168373ffffffffffffffffffffffffffffffffffffffff167fddf252ad1be2c89b69c2b068fc378daa952ba7f163c4a11628f55a4df523b3ef836040516103519190610777565b60405180910390a3505050565b5f81519050919050565b7f4e487b71000000000000000000000000000000000000000000000000000000005f52604160045260245ffd5b7f4e487b71000000000000000000000000000000000000000000000000000000005f52602260045260245ffd5b5f60028204905060018216806103d957607f821691505b6020821081036103ec576103eb610395565b5b50919050565b5f819050815f5260205f209050919050565b5f6020601f8301049050919050565b5f82821b905092915050565b5f6008830261044e7fffffffffffffffffffffffffffffffffffffffffffffffffffffffffffffffff82610413565b6104588683610413565b95508019841693508086168417925050509392505050565b5f819050919050565b5f819050919050565b5f61049c61049761049284610470565b610479565b610470565b9050919050565b5f819050919050565b6104b583610482565b6104c96104c1826104a3565b84845461041f565b825550505050565b5f5f905090565b6104e06104d1565b6104eb8184846104ac565b505050565b5f5b82811015610511576105065f8284016104d8565b6001810190506104f2565b505050565b601f821115610564578282111561056357610530816103f2565b61053983610404565b61054285610404565b602086101561054f575f90505b80830161055e828403826104f0565b505050505b5b505050565b5f82821c905092915050565b5f6105845f1984600802610569565b1980831691505092915050565b5f61059c8383610575565b9150826002028217905092915050565b6105b58261035e565b67ffffffffffffffff8111156105ce576105cd610368565b5b6105d882546103c2565b6105e3828285610516565b5f60209050601f831160018114610614575f8415610602578287015190505b61060c8582610591565b865550610673565b601f198416610622866103f2565b5f5b8281101561064957848901518255600182019150602085019450602081019050610624565b868310156106665784890151610662601f891682610575565b8355505b6001600288020188555050505b505050505050565b5f73ffffffffffffffffffffffffffffffffffffffff82169050919050565b5f6106a48261067b565b9050919050565b6106b48161069a565b82525050565b5f6020820190506106cd5f8301846106ab565b92915050565b7f4e487b71000000000000000000000000000000000000000000000000000000005f52601160045260245ffd5b5f61070a82610470565b915061071583610470565b925082820190508082111561072d5761072c6106d3565b5b92915050565b61073c81610470565b82525050565b5f6060820190506107555f8301866106ab565b6107626020830185610733565b61076f6040830184610733565b949350505050565b5f60208201905061078a5f830184610733565b92915050565b610e8c8061079d5f395ff3fe608060405234801561000f575f5ffd5b506004361061009c575f3560e01c806370a082311161006457806370a082311461015a57806395d89b411461018a578063a9059cbb146101a8578063dd62ed3e146101d8578063de5f72fd146102085761009c565b806306fdde03146100a0578063095ea7b3146100be57806318160ddd146100ee57806323b872dd1461010c578063313ce5671461013c575b5f5ffd5b6100a8610212565b6040516100b59190610b05565b60405180910390f35b6100d860048036038101906100d39190610bb6565b6102a2565b6040516100e59190610c0e565b60405180910390f35b6100f66102c4565b6040516101039190610c36565b60405180910390f35b61012660048036038101906101219190610c4f565b6102cd565b6040516101339190610c0e565b60405180910390f35b6101446102fb565b6040516101519190610cba565b60405180910390f35b610174600480360381019061016f9190610cd3565b610303565b6040516101819190610c36565b60405180910390f35b610192610348565b60405161019f9190610b05565b60405180910390f35b6101c260048036038101906101bd9190610bb6565b6103d8565b6040516101cf9190610c0e565b60405180910390f35b6101f260048036038101906101ed9190610cfe565b6103fa565b6040516101ff9190610c36565b60405180910390f35b61021061047c565b005b60606003805461022190610d69565b80601f016020809104026020016040519081016040528092919081815260200182805461024d90610d69565b80156102985780601f1061026f57610100808354040283529160200191610298565b820191905f5260205f20905b81548152906001019060200180831161027b57829003601f168201915b5050505050905090565b5f5f6102ac610492565b90506102b9818585610499565b600191505092915050565b5f600254905090565b5f5f6102d7610492565b90506102e48582856104ab565b6102ef85858561053e565b60019150509392505050565b5f6012905090565b5f5f5f8373ffffffffffffffffffffffffffffffffffffffff1673ffffffffffffffffffffffffffffffffffffffff1681526020019081526020015f20549050919050565b60606004805461035790610d69565b80601f016020809104026020016040519081016040528092919081815260200182805461038390610d69565b80156103ce5780601f106103a5576101008083540402835291602001916103ce565b820191905f5260205f20905b8154815290600101906020018083116103b157829003601f168201915b5050505050905090565b5f5f6103e2610492565b90506103ef81858561053e565b600191505092915050565b5f60015f8473ffffffffffffffffffffffffffffffffffffffff1673ffffffffffffffffffffffffffffffffffffffff1681526020019081526020015f205f8373ffffffffffffffffffffffffffffffffffffffff1673ffffffffffffffffffffffffffffffffffffffff1681526020019081526020015f2054905092915050565b6104903369d3c21bcecceda100000061062e565b565b5f33905090565b6104a683838360016106ad565b505050565b5f6104b684846103fa565b90507fffffffffffffffffffffffffffffffffffffffffffffffffffffffffffffffff8110156105385781811015610529578281836040517ffb8f41b200000000000000000000000000000000000000000000000000000000815260040161052093929190610da8565b60405180910390fd5b61053784848484035f6106ad565b5b50505050565b5f73ffffffffffffffffffffffffffffffffffffffff168373ffffffffffffffffffffffffffffffffffffffff16036105ae575f6040517f96c6fd1e0000000000000000000000000000000000000000000000000000000081526004016105a59190610ddd565b60405180910390fd5b5f73ffffffffffffffffffffffffffffffffffffffff168273ffffffffffffffffffffffffffffffffffffffff160361061e575f6040517fec442f050000000000000000000000000000000000000000000000000000000081526004016106159190610ddd565b60405180910390fd5b61062983838361087c565b505050565b5f73ffffffffffffffffffffffffffffffffffffffff168273ffffffffffffffffffffffffffffffffffffffff160361069e575f6040517fec442f050000000000000000000000000000000000000000000000000000000081526004016106959190610ddd565b60405180910390fd5b6106a95f838361087c565b5050565b5f73ffffffffffffffffffffffffffffffffffffffff168473ffffffffffffffffffffffffffffffffffffffff160361071d575f6040517fe602df050000000000000000000000000000000000000000000000000000000081526004016107149190610ddd565b60405180910390fd5b5f73ffffffffffffffffffffffffffffffffffffffff168373ffffffffffffffffffffffffffffffffffffffff160361078d575f6040517f94280d620000000000000000000000000000000000000000000000000000000081526004016107849190610ddd565b60405180910390fd5b8160015f8673ffffffffffffffffffffffffffffffffffffffff1673ffffffffffffffffffffffffffffffffffffffff1681526020019081526020015f205f8573ffffffffffffffffffffffffffffffffffffffff1673ffffffffffffffffffffffffffffffffffffffff1681526020019081526020015f20819055508015610876578273ffffffffffffffffffffffffffffffffffffffff168473ffffffffffffffffffffffffffffffffffffffff167f8c5be1e5ebec7d5bd14f71427d1e84f3dd0314c0f7b2291e5b200ac8c7c3b9258460405161086d9190610c36565b60405180910390a35b50505050565b5f73ffffffffffffffffffffffffffffffffffffffff168373ffffffffffffffffffffffffffffffffffffffff16036108cc578060025f8282546108c09190610e23565b9250508190555061099a565b5f5f5f8573ffffffffffffffffffffffffffffffffffffffff1673ffffffffffffffffffffffffffffffffffffffff1681526020019081526020015f2054905081811015610955578381836040517fe450d38c00000000000000000000000000000000000000000000000000000000815260040161094c93929190610da8565b60405180910390fd5b8181035f5f8673ffffffffffffffffffffffffffffffffffffffff1673ffffffffffffffffffffffffffffffffffffffff1681526020019081526020015f2081905550505b5f73ffffffffffffffffffffffffffffffffffffffff168273ffffffffffffffffffffffffffffffffffffffff16036109e1578060025f8282540392505081905550610a2b565b805f5f8473ffffffffffffffffffffffffffffffffffffffff1673ffffffffffffffffffffffffffffffffffffffff1681526020019081526020015f205f82825401925050819055505b8173ffffffffffffffffffffffffffffffffffffffff168373ffffffffffffffffffffffffffffffffffffffff167fddf252ad1be2c89b69c2b068fc378daa952ba7f163c4a11628f55a4df523b3ef83604051610a889190610c36565b60405180910390a3505050565b5f81519050919050565b5f82825260208201905092915050565b8281835e5f83830152505050565b5f601f19601f8301169050919050565b5f610ad782610a95565b610ae18185610a9f565b9350610af1818560208601610aaf565b610afa81610abd565b840191505092915050565b5f6020820190508181035f830152610b1d8184610acd565b905092915050565b5f5ffd5b5f73ffffffffffffffffffffffffffffffffffffffff82169050919050565b5f610b5282610b29565b9050919050565b610b6281610b48565b8114610b6c575f5ffd5b50565b5f81359050610b7d81610b59565b92915050565b5f819050919050565b610b9581610b83565b8114610b9f575f5ffd5b50565b5f81359050610bb081610b8c565b92915050565b5f5f60408385031215610bcc57610bcb610b25565b5b5f610bd985828601610b6f565b9250506020610bea85828601610ba2565b9150509250929050565b5f8115159050919050565b610c0881610bf4565b82525050565b5f602082019050610c215f830184610bff565b92915050565b610c3081610b83565b82525050565b5f602082019050610c495f830184610c27565b92915050565b5f5f5f60608486031215610c6657610c65610b25565b5b5f610c7386828701610b6f565b9350506020610c8486828701610b6f565b9250506040610c9586828701610ba2565b9150509250925092565b5f60ff82169050919050565b610cb481610c9f565b82525050565b5f602082019050610ccd5f830184610cab565b92915050565b5f60208284031215610ce857610ce7610b25565b5b5f610cf584828501610b6f565b91505092915050565b5f5f60408385031215610d1457610d13610b25565b5b5f610d2185828601610b6f565b9250506020610d3285828601610b6f565b9150509250929050565b7f4e487b71000000000000000000000000000000000000000000000000000000005f52602260045260245ffd5b5f6002820490506001821680610d8057607f821691505b602082108103610d9357610d92610d3c565b5b50919050565b610da281610b48565b82525050565b5f606082019050610dbb5f830186610d99565b610dc86020830185610c27565b610dd56040830184610c27565b949350505050565b5f602082019050610df05f830184610d99565b92915050565b7f4e487b71000000000000000000000000000000000000000000000000000000005f52601160045260245ffd5b5f610e2d82610b83565b9150610e3883610b83565b9250828201905080821115610e5057610e4f610df6565b5b9291505056fea2646970667358221220b9b6c91ddd84fe6f598521ef7cfd92db9c31f6f82f3ecbad79c5bfac350f660f64736f6c63430008210033","linkReferences":{}},"methodIdentifiers":{"allowance(address,address)":"dd62ed3e","approve(address,uint256)":"095ea7b3","balanceOf(address)":"70a08231","decimals()":"313ce567","faucet()":"de5f72fd","name()":"06fdde03","symbol()":"95d89b41","totalSupply()":"18160ddd","transfer(address,uint256)":"a9059cbb","transferFrom(address,address,uint256)":"23b872dd"},"id":14}